{
  "_format": "hh-sol-artifact-1",
  "contractName": "KryptoVault",
  "sourceName": "contracts/KryptoStaking.sol",
  "abi": [
    {
      "inputs": [
        {
          "internalType": "address",
          "name": "_nft",
          "type": "address"
        },
        {
          "internalType": "address",
          "name": "_token",
          "type": "address"
        }
      ],
      "stateMutability": "nonpayable",
      "type": "constructor"
    },
    {
      "inputs": [
        {
          "internalType": "address",
          "name": "user",
          "type": "address"
        }
      ],
      "name": "balanceOf",
      "outputs": [
        {
          "internalType": "uint256",
          "name": "nStakedbalance",
          "type": "uint256"
        }
      ],
      "stateMutability": "view",
      "type": "function"
    },
    {
      "inputs": [
        {
          "internalType": "uint256[]",
          "name": "tokenIds",
          "type": "uint256[]"
        }
      ],
      "name": "claim",
      "outputs": [],
      "stateMutability": "nonpayable",
      "type": "function"
    },
    {
      "inputs": [
        {
          "internalType": "address",
          "name": "user",
          "type": "address"
        }
      ],
      "name": "getTotalReward",
      "outputs": [
        {
          "internalType": "uint256",
          "name": "reward",
          "type": "uint256"
        }
      ],
      "stateMutability": "view",
      "type": "function"
    },
    {
      "inputs": [
        {
          "internalType": "address",
          "name": "",
          "type": "address"
        },
        {
          "internalType": "address",
          "name": "",
          "type": "address"
        },
        {
          "internalType": "uint256",
          "name": "",
          "type": "uint256"
        },
        {
          "internalType": "bytes",
          "name": "",
          "type": "bytes"
        }
      ],
      "name": "onERC721Received",
      "outputs": [
        {
          "internalType": "bytes4",
          "name": "",
          "type": "bytes4"
        }
      ],
      "stateMutability": "pure",
      "type": "function"
    },
    {
      "inputs": [
        {
          "internalType": "uint256[]",
          "name": "tokenIds",
          "type": "uint256[]"
        }
      ],
      "name": "stake",
      "outputs": [],
      "stateMutability": "nonpayable",
      "type": "function"
    },
    {
      "inputs": [
        {
          "internalType": "address",
          "name": "user",
          "type": "address"
        }
      ],
      "name": "tokensOfOwner",
      "outputs": [
        {
          "internalType": "uint256[]",
          "name": "tokenIds",
          "type": "uint256[]"
        }
      ],
      "stateMutability": "view",
      "type": "function"
    },
    {
      "inputs": [],
      "name": "totalItemsStaked",
      "outputs": [
        {
          "internalType": "uint256",
          "name": "",
          "type": "uint256"
        }
      ],
      "stateMutability": "view",
      "type": "function"
    },
    {
      "inputs": [
        {
          "internalType": "uint256[]",
          "name": "tokenIds",
          "type": "uint256[]"
        }
      ],
      "name": "unstake",
      "outputs": [],
      "stateMutability": "nonpayable",
      "type": "function"
    }
  ],
  "bytecode": "0x60c060405234801561001057600080fd5b50604051610f22380380610f2283398101604081905261002f9161006a565b6001600160601b0319606091821b811660805291901b1660a05261009d565b80516001600160a01b038116811461006557600080fd5b919050565b6000806040838503121561007d57600080fd5b6100868361004e565b91506100946020840161004e565b90509250929050565b60805160601c60a05160601c610e3e6100e46000396000818161017001528181610300015281816105a2015281816106930152610b04015260006109ba0152610e3e6000f3fe608060405234801561001057600080fd5b50600436106100885760003560e01c80636ba4c1381161005b5780636ba4c1381461010957806370a082311461011c5780638462151c1461012f578063e449f3411461014f57600080fd5b80630fbf0a931461008d578063150b7a02146100a257806333e58779146100df57806334381749146100f6575b600080fd5b6100a061009b366004610c6c565b610162565b005b6100c16100b0366004610bcd565b630a85bd0160e11b95945050505050565b6040516001600160e01b031990911681526020015b60405180910390f35b6100e860005481565b6040519081526020016100d6565b6100e8610104366004610b8c565b610468565b6100a0610117366004610c6c565b61058c565b6100e861012a366004610b8c565b61059d565b61014261013d366004610b8c565b610675565b6040516100d69190610cfa565b6100a061015d366004610c6c565b6107d4565b60005b8181101561044a57337f00000000000000000000000000000000000000000000000000000000000000006001600160a01b0316636352211e8585858181106101af576101af610dc4565b905060200201356040518263ffffffff1660e01b81526004016101d491815260200190565b60206040518083038186803b1580156101ec57600080fd5b505afa158015610200573d6000803e3d6000fd5b505050506040513d601f19601f820116820180604052508101906102249190610bb0565b6001600160a01b03161461027f5760405162461bcd60e51b815260206004820152601760248201527f43616c6c6572206973206e6f74204e4654204f776e657200000000000000000060448201526064015b60405180910390fd5b600060018185858581811061029657610296610dc4565b60209081029290920135835250810191909152604001600020546001600160a01b0316146102fe5760405162461bcd60e51b8152602060048201526015602482015274139195081a5cc8185b1c9958591e481cdd185ad959605a1b6044820152606401610276565b7f00000000000000000000000000000000000000000000000000000000000000006001600160a01b03166342842e0e333086868681811061034157610341610dc4565b6040516001600160e01b031960e088901b1681526001600160a01b03958616600482015294909316602485015250602090910201356044820152606401600060405180830381600087803b15801561039857600080fd5b505af11580156103ac573d6000803e3d6000fd5b505050506040518060400160405280336001600160a01b031681526020014267ffffffffffffffff16815250600160008585858181106103ee576103ee610dc4565b602090810292909201358352508181019290925260400160002082518154939092015167ffffffffffffffff16600160a01b026001600160e01b03199093166001600160a01b0390921691909117919091179055600101610165565b508181905060008082825461045f9190610d3e565b90915550505050565b60008061047483610675565b80519091506000805b828110156105835783818151811061049757610497610dc4565b602090810291909101810151600081815260019092526040909120549092506001600160a01b038781169116146105045760405162461bcd60e51b81526020600482015260116024820152703ab9b2b91034b9903737ba1027bbb732b960791b6044820152606401610276565b600082815260016020526040812054600160a01b900467ffffffffffffffff169061052f8242610d97565b9050600061053c826107e1565b90506201518061054c8383610d78565b61055e90670de0b6b3a7640000610d78565b6105689190610d56565b6105729089610d3e565b9750506001909201915061047d9050565b50505050919050565b610599338383600061084d565b5050565b6000807f00000000000000000000000000000000000000000000000000000000000000006001600160a01b03166318160ddd6040518163ffffffff1660e01b815260040160206040518083038186803b1580156105f957600080fd5b505afa15801561060d573d6000803e3d6000fd5b505050506040513d601f19601f820116820180604052508101906106319190610ce1565b905060005b81811161066e576000818152600160205260409020546001600160a01b0385811691161415610666576001909201915b600101610636565b5050919050565b606060006106828361059d565b90508061068f5750919050565b60007f00000000000000000000000000000000000000000000000000000000000000006001600160a01b03166318160ddd6040518163ffffffff1660e01b815260040160206040518083038186803b1580156106ea57600080fd5b505afa1580156106fe573d6000803e3d6000fd5b505050506040513d601f19601f820116820180604052508101906107229190610ce1565b905060008267ffffffffffffffff81111561073f5761073f610dda565b604051908082528060200260200182016040528015610768578160200160208202803683370190505b50935060005b828111610583576000818152600160205260409020546001600160a01b03878116911614156107cc57808583815181106107aa576107aa610dc4565b6020908102919091010152600190910190838214156107cc5750505050919050565b60010161076e565b610599338383600161084d565b600062278d008210156107f657506001919050565b61080462278d006003610d78565b82101561081357506002919050565b61082162278d006006610d78565b82101561083057506004919050565b61083e62278d006006610d78565b8210610848575060085b919050565b60008083815b8181101561098d5786868281811061086d5761086d610dc4565b6020908102929092013560008181526001909352604090922054919550506001600160a01b038981169116146108d95760405162461bcd60e51b81526020600482015260116024820152703ab9b2b91034b9903737ba1027bbb732b960791b6044820152606401610276565b600084815260016020526040812054600160a01b900467ffffffffffffffff16906109048242610d97565b90506000610911826107e1565b9050620151806109218383610d78565b61093390670de0b6b3a7640000610d78565b61093d9190610d56565b6109479087610d3e565b6000888152600160208190526040909120805467ffffffffffffffff60a01b1916600160a01b4267ffffffffffffffff1602179055909650939093019250610853915050565b508115610a17576040516340c10f1960e01b81526001600160a01b038881166004830152602482018490527f000000000000000000000000000000000000000000000000000000000000000016906340c10f1990604401600060405180830381600087803b1580156109fe57600080fd5b505af1158015610a12573d6000803e3d6000fd5b505050505b8315610a2857610a28878787610a31565b50505050505050565b60005b81811015610b6d576000838383818110610a5057610a50610dc4565b6020908102929092013560008181526001909352604090922054919250506001600160a01b03868116911614610abc5760405162461bcd60e51b81526020600482015260116024820152703ab9b2b91034b9903737ba1037bbb732b960791b6044820152606401610276565b6000818152600160205260409081902080546001600160e01b031916905551632142170760e11b81523060048201526001600160a01b038681166024830152604482018390527f000000000000000000000000000000000000000000000000000000000000000016906342842e0e90606401600060405180830381600087803b158015610b4857600080fd5b505af1158015610b5c573d6000803e3d6000fd5b505060019093019250610a34915050565b5081819050600080828254610b829190610d97565b9091555050505050565b600060208284031215610b9e57600080fd5b8135610ba981610df0565b9392505050565b600060208284031215610bc257600080fd5b8151610ba981610df0565b600080600080600060808688031215610be557600080fd5b8535610bf081610df0565b94506020860135610c0081610df0565b935060408601359250606086013567ffffffffffffffff80821115610c2457600080fd5b818801915088601f830112610c3857600080fd5b813581811115610c4757600080fd5b896020828501011115610c5957600080fd5b9699959850939650602001949392505050565b60008060208385031215610c7f57600080fd5b823567ffffffffffffffff80821115610c9757600080fd5b818501915085601f830112610cab57600080fd5b813581811115610cba57600080fd5b8660208260051b8501011115610ccf57600080fd5b60209290920196919550909350505050565b600060208284031215610cf357600080fd5b5051919050565b6020808252825182820181905260009190848201906040850190845b81811015610d3257835183529284019291840191600101610d16565b50909695505050505050565b60008219821115610d5157610d51610dae565b500190565b600082610d7357634e487b7160e01b600052601260045260246000fd5b500490565b6000816000190483118215151615610d9257610d92610dae565b500290565b600082821015610da957610da9610dae565b500390565b634e487b7160e01b600052601160045260246000fd5b634e487b7160e01b600052603260045260246000fd5b634e487b7160e01b600052604160045260246000fd5b6001600160a01b0381168114610e0557600080fd5b5056fea26469706673582212203dcf61a6996b774f8436326e94f72695d913fd2ff098e1aa93b0928fd496ee0b64736f6c63430008070033",
  "linkReferences": {},
  "deployedLinkReferences": {}
}