{
  "_format": "hh-sol-artifact-1",
  "contractName": "KryptoNFT",
  "sourceName": "contracts/KryptoPunksNFT.sol",
  "abi": [
    {
      "inputs": [
        {
          "internalType": "uint256",
          "name": "_maxPerTx",
          "type": "uint256"
        },
        {
          "internalType": "uint256",
          "name": "_cost",
          "type": "uint256"
        },
        {
          "internalType": "uint256",
          "name": "_totalsupply",
          "type": "uint256"
        }
      ],
      "stateMutability": "nonpayable",
      "type": "constructor"
    },
    {
      "inputs": [],
      "name": "ApprovalCallerNotOwnerNorApproved",
      "type": "error"
    },
    {
      "inputs": [],
      "name": "ApprovalQueryForNonexistentToken",
      "type": "error"
    },
    {
      "inputs": [],
      "name": "BalanceQueryForZeroAddress",
      "type": "error"
    },
    {
      "inputs": [],
      "name": "InvalidQueryRange",
      "type": "error"
    },
    {
      "inputs": [],
      "name": "MintERC2309QuantityExceedsLimit",
      "type": "error"
    },
    {
      "inputs": [],
      "name": "MintToZeroAddress",
      "type": "error"
    },
    {
      "inputs": [],
      "name": "MintZeroQuantity",
      "type": "error"
    },
    {
      "inputs": [],
      "name": "NotCompatibleWithSpotMints",
      "type": "error"
    },
    {
      "inputs": [],
      "name": "OwnerQueryForNonexistentToken",
      "type": "error"
    },
    {
      "inputs": [],
      "name": "OwnershipNotInitializedForExtraData",
      "type": "error"
    },
    {
      "inputs": [],
      "name": "SequentialMintExceedsLimit",
      "type": "error"
    },
    {
      "inputs": [],
      "name": "SequentialUpToTooSmall",
      "type": "error"
    },
    {
      "inputs": [],
      "name": "SpotMintTokenIdTooSmall",
      "type": "error"
    },
    {
      "inputs": [],
      "name": "TokenAlreadyExists",
      "type": "error"
    },
    {
      "inputs": [],
      "name": "TransferCallerNotOwnerNorApproved",
      "type": "error"
    },
    {
      "inputs": [],
      "name": "TransferFromIncorrectOwner",
      "type": "error"
    },
    {
      "inputs": [],
      "name": "TransferToNonERC721ReceiverImplementer",
      "type": "error"
    },
    {
      "inputs": [],
      "name": "TransferToZeroAddress",
      "type": "error"
    },
    {
      "inputs": [],
      "name": "URIQueryForNonexistentToken",
      "type": "error"
    },
    {
      "anonymous": false,
      "inputs": [
        {
          "indexed": true,
          "internalType": "address",
          "name": "owner",
          "type": "address"
        },
        {
          "indexed": true,
          "internalType": "address",
          "name": "approved",
          "type": "address"
        },
        {
          "indexed": true,
          "internalType": "uint256",
          "name": "tokenId",
          "type": "uint256"
        }
      ],
      "name": "Approval",
      "type": "event"
    },
    {
      "anonymous": false,
      "inputs": [
        {
          "indexed": true,
          "internalType": "address",
          "name": "owner",
          "type": "address"
        },
        {
          "indexed": true,
          "internalType": "address",
          "name": "operator",
          "type": "address"
        },
        {
          "indexed": false,
          "internalType": "bool",
          "name": "approved",
          "type": "bool"
        }
      ],
      "name": "ApprovalForAll",
      "type": "event"
    },
    {
      "anonymous": false,
      "inputs": [
        {
          "indexed": true,
          "internalType": "uint256",
          "name": "fromTokenId",
          "type": "uint256"
        },
        {
          "indexed": false,
          "internalType": "uint256",
          "name": "toTokenId",
          "type": "uint256"
        },
        {
          "indexed": true,
          "internalType": "address",
          "name": "from",
          "type": "address"
        },
        {
          "indexed": true,
          "internalType": "address",
          "name": "to",
          "type": "address"
        }
      ],
      "name": "ConsecutiveTransfer",
      "type": "event"
    },
    {
      "anonymous": false,
      "inputs": [
        {
          "indexed": true,
          "internalType": "address",
          "name": "previousOwner",
          "type": "address"
        },
        {
          "indexed": true,
          "internalType": "address",
          "name": "newOwner",
          "type": "address"
        }
      ],
      "name": "OwnershipTransferred",
      "type": "event"
    },
    {
      "anonymous": false,
      "inputs": [
        {
          "indexed": true,
          "internalType": "address",
          "name": "from",
          "type": "address"
        },
        {
          "indexed": true,
          "internalType": "address",
          "name": "to",
          "type": "address"
        },
        {
          "indexed": true,
          "internalType": "uint256",
          "name": "tokenId",
          "type": "uint256"
        }
      ],
      "name": "Transfer",
      "type": "event"
    },
    {
      "inputs": [
        {
          "internalType": "address",
          "name": "to",
          "type": "address"
        },
        {
          "internalType": "uint256",
          "name": "tokenId",
          "type": "uint256"
        }
      ],
      "name": "approve",
      "outputs": [],
      "stateMutability": "payable",
      "type": "function"
    },
    {
      "inputs": [
        {
          "internalType": "address",
          "name": "owner",
          "type": "address"
        }
      ],
      "name": "balanceOf",
      "outputs": [
        {
          "internalType": "uint256",
          "name": "",
          "type": "uint256"
        }
      ],
      "stateMutability": "view",
      "type": "function"
    },
    {
      "inputs": [
        {
          "internalType": "uint256",
          "name": "tokenId",
          "type": "uint256"
        }
      ],
      "name": "explicitOwnershipOf",
      "outputs": [
        {
          "components": [
            {
              "internalType": "address",
              "name": "addr",
              "type": "address"
            },
            {
              "internalType": "uint64",
              "name": "startTimestamp",
              "type": "uint64"
            },
            {
              "internalType": "bool",
              "name": "burned",
              "type": "bool"
            },
            {
              "internalType": "uint24",
              "name": "extraData",
              "type": "uint24"
            }
          ],
          "internalType": "struct IERC721A.TokenOwnership",
          "name": "ownership",
          "type": "tuple"
        }
      ],
      "stateMutability": "view",
      "type": "function"
    },
    {
      "inputs": [
        {
          "internalType": "uint256[]",
          "name": "tokenIds",
          "type": "uint256[]"
        }
      ],
      "name": "explicitOwnershipsOf",
      "outputs": [
        {
          "components": [
            {
              "internalType": "address",
              "name": "addr",
              "type": "address"
            },
            {
              "internalType": "uint64",
              "name": "startTimestamp",
              "type": "uint64"
            },
            {
              "internalType": "bool",
              "name": "burned",
              "type": "bool"
            },
            {
              "internalType": "uint24",
              "name": "extraData",
              "type": "uint24"
            }
          ],
          "internalType": "struct IERC721A.TokenOwnership[]",
          "name": "",
          "type": "tuple[]"
        }
      ],
      "stateMutability": "view",
      "type": "function"
    },
    {
      "inputs": [
        {
          "internalType": "uint256",
          "name": "tokenId",
          "type": "uint256"
        }
      ],
      "name": "getApproved",
      "outputs": [
        {
          "internalType": "address",
          "name": "",
          "type": "address"
        }
      ],
      "stateMutability": "view",
      "type": "function"
    },
    {
      "inputs": [
        {
          "internalType": "address",
          "name": "owner",
          "type": "address"
        },
        {
          "internalType": "address",
          "name": "operator",
          "type": "address"
        }
      ],
      "name": "isApprovedForAll",
      "outputs": [
        {
          "internalType": "bool",
          "name": "",
          "type": "bool"
        }
      ],
      "stateMutability": "view",
      "type": "function"
    },
    {
      "inputs": [
        {
          "internalType": "uint256",
          "name": "nAmount",
          "type": "uint256"
        }
      ],
      "name": "mint",
      "outputs": [],
      "stateMutability": "payable",
      "type": "function"
    },
    {
      "inputs": [],
      "name": "nCostMint",
      "outputs": [
        {
          "internalType": "uint256",
          "name": "",
          "type": "uint256"
        }
      ],
      "stateMutability": "view",
      "type": "function"
    },
    {
      "inputs": [],
      "name": "nMaxPerTx",
      "outputs": [
        {
          "internalType": "uint256",
          "name": "",
          "type": "uint256"
        }
      ],
      "stateMutability": "view",
      "type": "function"
    },
    {
      "inputs": [],
      "name": "nTotalSupply",
      "outputs": [
        {
          "internalType": "uint256",
          "name": "",
          "type": "uint256"
        }
      ],
      "stateMutability": "view",
      "type": "function"
    },
    {
      "inputs": [],
      "name": "name",
      "outputs": [
        {
          "internalType": "string",
          "name": "",
          "type": "string"
        }
      ],
      "stateMutability": "view",
      "type": "function"
    },
    {
      "inputs": [],
      "name": "owner",
      "outputs": [
        {
          "internalType": "address",
          "name": "",
          "type": "address"
        }
      ],
      "stateMutability": "view",
      "type": "function"
    },
    {
      "inputs": [
        {
          "internalType": "uint256",
          "name": "tokenId",
          "type": "uint256"
        }
      ],
      "name": "ownerOf",
      "outputs": [
        {
          "internalType": "address",
          "name": "",
          "type": "address"
        }
      ],
      "stateMutability": "view",
      "type": "function"
    },
    {
      "inputs": [],
      "name": "paused",
      "outputs": [
        {
          "internalType": "uint256",
          "name": "",
          "type": "uint256"
        }
      ],
      "stateMutability": "view",
      "type": "function"
    },
    {
      "inputs": [],
      "name": "renounceOwnership",
      "outputs": [],
      "stateMutability": "nonpayable",
      "type": "function"
    },
    {
      "inputs": [
        {
          "internalType": "address",
          "name": "from",
          "type": "address"
        },
        {
          "internalType": "address",
          "name": "to",
          "type": "address"
        },
        {
          "internalType": "uint256",
          "name": "tokenId",
          "type": "uint256"
        }
      ],
      "name": "safeTransferFrom",
      "outputs": [],
      "stateMutability": "payable",
      "type": "function"
    },
    {
      "inputs": [
        {
          "internalType": "address",
          "name": "from",
          "type": "address"
        },
        {
          "internalType": "address",
          "name": "to",
          "type": "address"
        },
        {
          "internalType": "uint256",
          "name": "tokenId",
          "type": "uint256"
        },
        {
          "internalType": "bytes",
          "name": "_data",
          "type": "bytes"
        }
      ],
      "name": "safeTransferFrom",
      "outputs": [],
      "stateMutability": "payable",
      "type": "function"
    },
    {
      "inputs": [
        {
          "internalType": "uint256",
          "name": "_paused",
          "type": "uint256"
        }
      ],
      "name": "setActive",
      "outputs": [],
      "stateMutability": "payable",
      "type": "function"
    },
    {
      "inputs": [
        {
          "internalType": "address",
          "name": "operator",
          "type": "address"
        },
        {
          "internalType": "bool",
          "name": "approved",
          "type": "bool"
        }
      ],
      "name": "setApprovalForAll",
      "outputs": [],
      "stateMutability": "nonpayable",
      "type": "function"
    },
    {
      "inputs": [
        {
          "internalType": "uint256",
          "name": "_cost",
          "type": "uint256"
        }
      ],
      "name": "setCost",
      "outputs": [],
      "stateMutability": "payable",
      "type": "function"
    },
    {
      "inputs": [
        {
          "internalType": "uint256",
          "name": "_maxPX",
          "type": "uint256"
        }
      ],
      "name": "setMaxPerTx",
      "outputs": [],
      "stateMutability": "payable",
      "type": "function"
    },
    {
      "inputs": [
        {
          "internalType": "string",
          "name": "_uriBase",
          "type": "string"
        }
      ],
      "name": "setUriBase",
      "outputs": [],
      "stateMutability": "payable",
      "type": "function"
    },
    {
      "inputs": [
        {
          "internalType": "bytes4",
          "name": "interfaceId",
          "type": "bytes4"
        }
      ],
      "name": "supportsInterface",
      "outputs": [
        {
          "internalType": "bool",
          "name": "",
          "type": "bool"
        }
      ],
      "stateMutability": "view",
      "type": "function"
    },
    {
      "inputs": [],
      "name": "symbol",
      "outputs": [
        {
          "internalType": "string",
          "name": "",
          "type": "string"
        }
      ],
      "stateMutability": "view",
      "type": "function"
    },
    {
      "inputs": [
        {
          "internalType": "uint256",
          "name": "tokenId",
          "type": "uint256"
        }
      ],
      "name": "tokenURI",
      "outputs": [
        {
          "internalType": "string",
          "name": "",
          "type": "string"
        }
      ],
      "stateMutability": "view",
      "type": "function"
    },
    {
      "inputs": [
        {
          "internalType": "address",
          "name": "owner",
          "type": "address"
        }
      ],
      "name": "tokensOfOwner",
      "outputs": [
        {
          "internalType": "uint256[]",
          "name": "",
          "type": "uint256[]"
        }
      ],
      "stateMutability": "view",
      "type": "function"
    },
    {
      "inputs": [
        {
          "internalType": "address",
          "name": "owner",
          "type": "address"
        },
        {
          "internalType": "uint256",
          "name": "start",
          "type": "uint256"
        },
        {
          "internalType": "uint256",
          "name": "stop",
          "type": "uint256"
        }
      ],
      "name": "tokensOfOwnerIn",
      "outputs": [
        {
          "internalType": "uint256[]",
          "name": "",
          "type": "uint256[]"
        }
      ],
      "stateMutability": "view",
      "type": "function"
    },
    {
      "inputs": [],
      "name": "totalSupply",
      "outputs": [
        {
          "internalType": "uint256",
          "name": "result",
          "type": "uint256"
        }
      ],
      "stateMutability": "view",
      "type": "function"
    },
    {
      "inputs": [
        {
          "internalType": "address",
          "name": "from",
          "type": "address"
        },
        {
          "internalType": "address",
          "name": "to",
          "type": "address"
        },
        {
          "internalType": "uint256",
          "name": "tokenId",
          "type": "uint256"
        }
      ],
      "name": "transferFrom",
      "outputs": [],
      "stateMutability": "payable",
      "type": "function"
    },
    {
      "inputs": [
        {
          "internalType": "address",
          "name": "newOwner",
          "type": "address"
        }
      ],
      "name": "transferOwnership",
      "outputs": [],
      "stateMutability": "nonpayable",
      "type": "function"
    },
    {
      "inputs": [],
      "name": "uriBase",
      "outputs": [
        {
          "internalType": "string",
          "name": "",
          "type": "string"
        }
      ],
      "stateMutability": "view",
      "type": "function"
    },
    {
      "inputs": [],
      "name": "uriExtension",
      "outputs": [
        {
          "internalType": "string",
          "name": "",
          "type": "string"
        }
      ],
      "stateMutability": "view",
      "type": "function"
    },
    {
      "inputs": [],
      "name": "withdraw",
      "outputs": [],
      "stateMutability": "payable",
      "type": "function"
    }
  ],
  "bytecode": "0x60a06040526000600c553480156200001657600080fd5b5060405162001f5238038062001f528339810160408190526200003991620001bd565b604080518082018252600f81526e12dc9e5c1d1bc8141d5b9ac8139195608a1b60208083019182528351808501909452600384526225a82760e91b9084015281519192916200008b9160029162000117565b508051620000a190600390602084019062000117565b50506000805550620000b333620000c5565b600a92909255600b5560805262000229565b600980546001600160a01b038381166001600160a01b0319831681179093556040519116919082907f8be0079c531659141344cd1fd0a4f28419497f9722a3daafe3b4186f6b6457e090600090a35050565b8280546200012590620001ec565b90600052602060002090601f01602090048101928262000149576000855562000194565b82601f106200016457805160ff191683800117855562000194565b8280016001018555821562000194579182015b828111156200019457825182559160200191906001019062000177565b50620001a2929150620001a6565b5090565b5b80821115620001a25760008155600101620001a7565b600080600060608486031215620001d357600080fd5b8351925060208401519150604084015190509250925092565b600181811c908216806200020157607f821691505b602082108114156200022357634e487b7160e01b600052602260045260246000fd5b50919050565b608051611d066200024c600039600081816103360152610aff0152611d066000f3fe6080604052600436106101ee5760003560e01c80636352211e1161010d578063a22cb465116100a0578063c87b56dd1161006f578063c87b56dd1461053a578063d59bd85d1461055a578063e985e9c514610570578063f2fde38b146105b9578063fbca0ce1146105d957600080fd5b8063a22cb465146104c7578063b88d4fde146104e7578063c23dc68f146104fa578063c6f6f2161461052757600080fd5b80638da5cb5b116100dc5780638da5cb5b1461046157806395d89b411461047f57806399a2557a14610494578063a0712d68146104b457600080fd5b80636352211e146103df57806370a08231146103ff578063715018a61461041f5780638462151c1461043457600080fd5b806330f0c3b91161018557806344a0d68a1161015457806344a0d68a1461035857806352ee46961461036b5780635bbb21771461039c5780635c975abb146103c957600080fd5b806330f0c3b9146102f35780633ccfd60b1461030957806342842e0e146103115780634454e0de1461032457600080fd5b8063095ea7b3116101c1578063095ea7b31461029757806318160ddd146102aa57806323b872dd146102cd57806327fc0cff146102e057600080fd5b806301ffc9a7146101f3578063023563d81461022857806306fdde031461023d578063081812fc1461025f575b600080fd5b3480156101ff57600080fd5b5061021361020e3660046119b3565b6105ee565b60405190151581526020015b60405180910390f35b61023b610236366004611a36565b610640565b005b34801561024957600080fd5b5061025261064d565b60405161021f9190611bbe565b34801561026b57600080fd5b5061027f61027a366004611a36565b6106df565b6040516001600160a01b03909116815260200161021f565b61023b6102a53660046118e1565b61071a565b3480156102b657600080fd5b50600154600054035b60405190815260200161021f565b61023b6102db3660046117ed565b61072a565b61023b6102ee3660046119ed565b610885565b3480156102ff57600080fd5b506102bf600a5481565b61023b6108a0565b61023b61031f3660046117ed565b61091c565b34801561033057600080fd5b506102bf7f000000000000000000000000000000000000000000000000000000000000000081565b61023b610366366004611a36565b61093c565b34801561037757600080fd5b5061025260405180604001604052806005815260200164173539b7b760d91b81525081565b3480156103a857600080fd5b506103bc6103b736600461193e565b610949565b60405161021f9190611b38565b3480156103d557600080fd5b506102bf600c5481565b3480156103eb57600080fd5b5061027f6103fa366004611a36565b610995565b34801561040b57600080fd5b506102bf61041a366004611798565b6109a0565b34801561042b57600080fd5b5061023b6109e6565b34801561044057600080fd5b5061045461044f366004611798565b6109fa565b60405161021f9190611b86565b34801561046d57600080fd5b506009546001600160a01b031661027f565b34801561048b57600080fd5b50610252610a29565b3480156104a057600080fd5b506104546104af36600461190b565b610a38565b61023b6104c2366004611a36565b610a45565b3480156104d357600080fd5b5061023b6104e23660046118a5565b610bd6565b61023b6104f5366004611829565b610c42565b34801561050657600080fd5b5061051a610515366004611a36565b610c83565b60405161021f9190611bd1565b61023b610535366004611a36565b610cdd565b34801561054657600080fd5b50610252610555366004611a36565b610cea565b34801561056657600080fd5b506102bf600b5481565b34801561057c57600080fd5b5061021361058b3660046117ba565b6001600160a01b03918216600090815260076020908152604080832093909416825291909152205460ff1690565b3480156105c557600080fd5b5061023b6105d4366004611798565b610e3c565b3480156105e557600080fd5b50610252610eb2565b60006301ffc9a760e01b6001600160e01b03198316148061061f57506380ac58cd60e01b6001600160e01b03198316145b8061063a5750635b5e139f60e01b6001600160e01b03198316145b92915050565b610648610f40565b600c55565b60606002805461065c90611c59565b80601f016020809104026020016040519081016040528092919081815260200182805461068890611c59565b80156106d55780601f106106aa576101008083540402835291602001916106d5565b820191906000526020600020905b8154815290600101906020018083116106b857829003601f168201915b5050505050905090565b60006106ea82610f9a565b6106fe576106fe6333d1c03960e21b610fda565b506000908152600660205260409020546001600160a01b031690565b61072682826001610fe4565b5050565b600061073582611087565b6001600160a01b03948516949091508116841461075b5761075b62a1148160e81b610fda565b60008281526006602052604090208054338082146001600160a01b0388169091141761079f5761078b863361058b565b61079f5761079f632ce44b5f60e11b610fda565b80156107aa57600082555b6001600160a01b038681166000908152600560205260408082208054600019019055918716808252919020805460010190554260a01b17600160e11b17600085815260046020526040902055600160e11b831661083557600184016000818152600460205260409020546108335760005481146108335760008181526004602052604090208490555b505b6001600160a01b0385168481887fddf252ad1be2c89b69c2b068fc378daa952ba7f163c4a11628f55a4df523b3ef600080a48061087c5761087c633a954ecd60e21b610fda565b50505050505050565b61088d610f40565b805161072690600d906020840190611672565b6108a8610f40565b60006108bc6009546001600160a01b031690565b6001600160a01b03164760405160006040518083038185875af1925050503d8060008114610906576040519150601f19603f3d011682016040523d82523d6000602084013e61090b565b606091505b505090508061091957600080fd5b50565b61093783838360405180602001604052806000815250610c42565b505050565b610944610f40565b600b55565b60408051828152600583901b8082016020019092526060915b801561098d57601f198082019186010135600061097e82610c83565b84840160200152506109629050565b509392505050565b600061063a82611087565b60006001600160a01b0382166109c0576109c06323d3ad8160e21b610fda565b506001600160a01b031660009081526005602052604090205467ffffffffffffffff1690565b6109ee610f40565b6109f86000611118565b565b6060600080610a0860005490565b90506060818314610a2157610a1e85848461116a565b90505b949350505050565b60606003805461065c90611c59565b6060610a2184848461116a565b600c54610a8e5760405162461bcd60e51b815260206004820152601260248201527118dbdb9d1c9858dd081a5cc81c185d5cd95960721b60448201526064015b60405180910390fd5b600a54811115610aec5760405162461bcd60e51b815260206004820152602360248201527f6d696e74416d6f756e742069732067726561746572207468616e204d617850656044820152620e4a8f60eb1b6064820152608401610a85565b6000610afb6001546000540390565b90507f0000000000000000000000000000000000000000000000000000000000000000610b288383611bdf565b1115610b6a5760405162461bcd60e51b815260206004820152601160248201527014dd5c1c1b1e481a5cc81b1a5b5a5d1959607a1b6044820152606401610a85565b6009546001600160a01b03163314610bcc57600b54610b899083611bf7565b341015610bcc5760405162461bcd60e51b81526020600482015260116024820152701a5b9cdd59999a58da595b9d0819dbdb19607a1b6044820152606401610a85565b6107263383611263565b3360008181526007602090815260408083206001600160a01b03871680855290835292819020805460ff191686151590811790915590519081529192917f17307eab39ab6107e8899845ad3d59bd9653f200f220920489ca2b5937696c31910160405180910390a35050565b610c4d84848461072a565b6001600160a01b0383163b15610c7d57610c698484848461127d565b610c7d57610c7d6368d2bf6b60e11b610fda565b50505050565b60408051608081018252600080825260208201819052918101829052606081018290529054821015610cd8575b600082815260046020526040902054610ccf5760001990910190610cb0565b61063a8261136b565b919050565b610ce5610f40565b600a55565b6060610cf582610f9a565b610d365760405162461bcd60e51b81526020600482015260126024820152712737b716a2bc34b9ba32b73a102a37b5b2b760711b6044820152606401610a85565b6000600d8054610d4590611c59565b80601f0160208091040260200160405190810160405280929190818152602001828054610d7190611c59565b8015610dbe5780601f10610d9357610100808354040283529160200191610dbe565b820191906000526020600020905b815481529060010190602001808311610da157829003601f168201915b50505050509050600081511115610e205780610dd9846113ea565b60405180604001604052806005815260200164173539b7b760d91b815250604051602001610e0993929190611ab8565b604051602081830303815290604052915050919050565b5050604080516020810190915260008152919050565b50919050565b610e44610f40565b6001600160a01b038116610ea95760405162461bcd60e51b815260206004820152602660248201527f4f776e61626c653a206e6577206f776e657220697320746865207a65726f206160448201526564647265737360d01b6064820152608401610a85565b61091981611118565b600d8054610ebf90611c59565b80601f0160208091040260200160405190810160405280929190818152602001828054610eeb90611c59565b8015610f385780601f10610f0d57610100808354040283529160200191610f38565b820191906000526020600020905b815481529060010190602001808311610f1b57829003601f168201915b505050505081565b6009546001600160a01b031633146109f85760405162461bcd60e51b815260206004820181905260248201527f4f776e61626c653a2063616c6c6572206973206e6f7420746865206f776e65726044820152606401610a85565b60008054821015610cd85760005b5060008281526004602052604090205480610fcd57610fc683611c42565b9250610fa8565b600160e01b161592915050565b8060005260046000fd5b6000610fef83610995565b90508180156110075750336001600160a01b03821614155b1561102a57611016813361058b565b61102a5761102a6367d9dca160e11b610fda565b60008381526006602052604080822080546001600160a01b0319166001600160a01b0388811691821790925591518693918516917f8c5be1e5ebec7d5bd14f71427d1e84f3dd0314c0f7b2291e5b200ac8c7c3b92591a450505050565b600081815260046020526040902054806110f85760005482106110b4576110b4636f96cda160e11b610fda565b5b5060001901600081815260046020526040902054806110d3576110b5565b600160e01b81166110e357919050565b6110f3636f96cda160e11b610fda565b6110b5565b600160e01b811661110857919050565b610cd8636f96cda160e11b610fda565b600980546001600160a01b038381166001600160a01b0319831681179093556040519116919082907f8be0079c531659141344cd1fd0a4f28419497f9722a3daafe3b4186f6b6457e090600090a35050565b606081831061118357611183631960ccad60e11b610fda565b60005480808410611192578093505b600061119d876109a0565b90508486106111aa575060005b80156112595780868603116111be57508484035b604080516001830160051b810191829052945060006111dc88610c83565b9050600081604001516111ed575080515b60005b6111f98a61136b565b92506040830151600081146112115760009250611236565b83511561121d57835192505b8b831860601b611236576001820191508a8260051b8a01525b5060018a01995083604052888a148061124e57508481145b156111f05787525050505b5050509392505050565b61072682826040518060200160405280600081525061147f565b604051630a85bd0160e11b81526000906001600160a01b0385169063150b7a02906112b2903390899088908890600401611afb565b602060405180830381600087803b1580156112cc57600080fd5b505af19250505080156112fc575060408051601f3d908101601f191682019092526112f9918101906119d0565b60015b61134e573d80801561132a576040519150601f19603f3d011682016040523d82523d6000602084013e61132f565b606091505b508051611346576113466368d2bf6b60e11b610fda565b805181602001fd5b6001600160e01b031916630a85bd0160e11b149050949350505050565b60408051608081018252600080825260208201819052918101829052606081019190915260008281526004602052604090205461063a90604080516080810182526001600160a01b038316815260a083901c67ffffffffffffffff166020820152600160e01b831615159181019190915260e89190911c606082015290565b606060006113f7836114e3565b600101905060008167ffffffffffffffff81111561141757611417611ca4565b6040519080825280601f01601f191660200182016040528015611441576020820181803683370190505b5090508181016020015b600019016f181899199a1a9b1b9c1cb0b131b232b360811b600a86061a8153600a850494508461147a5761098d565b61144b565b61148983836115bb565b6001600160a01b0383163b15610937576000548281035b6114b3600086838060010194508661127d565b6114c7576114c76368d2bf6b60e11b610fda565b8181106114a05781600054146114dc57600080fd5b5050505050565b60008072184f03e93ff9f4daa797ed6e38ed64bf6a1f0160401b83106115225772184f03e93ff9f4daa797ed6e38ed64bf6a1f0160401b830492506040015b6d04ee2d6d415b85acef8100000000831061154e576d04ee2d6d415b85acef8100000000830492506020015b662386f26fc10000831061156c57662386f26fc10000830492506010015b6305f5e1008310611584576305f5e100830492506008015b612710831061159857612710830492506004015b606483106115aa576064830492506002015b600a831061063a5760010192915050565b600054816115d3576115d363b562e8dd60e01b610fda565b60008181526004602090815260408083206001600160a01b0387164260a01b6001881460e11b178117909155808452600590925290912080546801000000000000000185020190558061162f5761162f622e076360e81b610fda565b818301825b808360007fddf252ad1be2c89b69c2b068fc378daa952ba7f163c4a11628f55a4df523b3ef600080a460010180821415611634575060005550505050565b82805461167e90611c59565b90600052602060002090601f0160209004810192826116a057600085556116e6565b82601f106116b957805160ff19168380011785556116e6565b828001600101855582156116e6579182015b828111156116e65782518255916020019190600101906116cb565b506116f29291506116f6565b5090565b5b808211156116f257600081556001016116f7565b600067ffffffffffffffff8084111561172657611726611ca4565b604051601f8501601f19908116603f0116810190828211818310171561174e5761174e611ca4565b8160405280935085815286868601111561176757600080fd5b858560208301376000602087830101525050509392505050565b80356001600160a01b0381168114610cd857600080fd5b6000602082840312156117aa57600080fd5b6117b382611781565b9392505050565b600080604083850312156117cd57600080fd5b6117d683611781565b91506117e460208401611781565b90509250929050565b60008060006060848603121561180257600080fd5b61180b84611781565b925061181960208501611781565b9150604084013590509250925092565b6000806000806080858703121561183f57600080fd5b61184885611781565b935061185660208601611781565b925060408501359150606085013567ffffffffffffffff81111561187957600080fd5b8501601f8101871361188a57600080fd5b6118998782356020840161170b565b91505092959194509250565b600080604083850312156118b857600080fd5b6118c183611781565b9150602083013580151581146118d657600080fd5b809150509250929050565b600080604083850312156118f457600080fd5b6118fd83611781565b946020939093013593505050565b60008060006060848603121561192057600080fd5b61192984611781565b95602085013595506040909401359392505050565b6000806020838503121561195157600080fd5b823567ffffffffffffffff8082111561196957600080fd5b818501915085601f83011261197d57600080fd5b81358181111561198c57600080fd5b8660208260051b85010111156119a157600080fd5b60209290920196919550909350505050565b6000602082840312156119c557600080fd5b81356117b381611cba565b6000602082840312156119e257600080fd5b81516117b381611cba565b6000602082840312156119ff57600080fd5b813567ffffffffffffffff811115611a1657600080fd5b8201601f81018413611a2757600080fd5b610a218482356020840161170b565b600060208284031215611a4857600080fd5b5035919050565b60008151808452611a67816020860160208601611c16565b601f01601f19169290920160200192915050565b80516001600160a01b0316825260208082015167ffffffffffffffff169083015260408082015115159083015260609081015162ffffff16910152565b60008451611aca818460208901611c16565b845190830190611ade818360208901611c16565b8451910190611af1818360208801611c16565b0195945050505050565b6001600160a01b0385811682528416602082015260408101839052608060608201819052600090611b2e90830184611a4f565b9695505050505050565b6020808252825182820181905260009190848201906040850190845b81811015611b7a57611b67838551611a7b565b9284019260809290920191600101611b54565b50909695505050505050565b6020808252825182820181905260009190848201906040850190845b81811015611b7a57835183529284019291840191600101611ba2565b6020815260006117b36020830184611a4f565b6080810161063a8284611a7b565b60008219821115611bf257611bf2611c8e565b500190565b6000816000190483118215151615611c1157611c11611c8e565b500290565b60005b83811015611c31578181015183820152602001611c19565b83811115610c7d5750506000910152565b600081611c5157611c51611c8e565b506000190190565b600181811c90821680611c6d57607f821691505b60208210811415610e3657634e487b7160e01b600052602260045260246000fd5b634e487b7160e01b600052601160045260246000fd5b634e487b7160e01b600052604160045260246000fd5b6001600160e01b03198116811461091957600080fdfea2646970667358221220cfee15bccc2b37ce424d6c8cedae1e510574327c33eb12aee82e68a1425a320f64736f6c63430008070033",
  "linkReferences": {},
  "deployedLinkReferences": {}
}